{
	"codes/T04/C2_local_variables.sol": {
		"local_variables": {
			"abi": [
				{
					"inputs": [],
					"name": "myfunc2",
					"outputs": [
						{
							"internalType": "int256",
							"name": "",
							"type": "int256"
						}
					],
					"stateMutability": "pure",
					"type": "function"
				},
				{
					"inputs": [],
					"name": "myfunc3",
					"outputs": [
						{
							"internalType": "string",
							"name": "",
							"type": "string"
						}
					],
					"stateMutability": "pure",
					"type": "function"
				}
			],
			"devdoc": {
				"kind": "dev",
				"methods": {},
				"version": 1
			},
			"evm": {
				"assembly": "    /* \"codes/T04/C2_local_variables.sol\":74:362  contract local_variables {\r... */\n  mstore(0x40, 0x80)\n  callvalue\n  dup1\n  iszero\n  tag_1\n  jumpi\n  0x00\n  dup1\n  revert\ntag_1:\n  pop\n  dataSize(sub_0)\n  dup1\n  dataOffset(sub_0)\n  0x00\n  codecopy\n  0x00\n  return\nstop\n\nsub_0: assembly {\n        /* \"codes/T04/C2_local_variables.sol\":74:362  contract local_variables {\r... */\n      mstore(0x40, 0x80)\n      callvalue\n      dup1\n      iszero\n      tag_1\n      jumpi\n      0x00\n      dup1\n      revert\n    tag_1:\n      pop\n      jumpi(tag_2, lt(calldatasize, 0x04))\n      shr(0xe0, calldataload(0x00))\n      dup1\n      0x0ffa37c8\n      eq\n      tag_3\n      jumpi\n      dup1\n      0x3850ba51\n      eq\n      tag_4\n      jumpi\n    tag_2:\n      0x00\n      dup1\n      revert\n        /* \"codes/T04/C2_local_variables.sol\":228:357  function myfunc3() public pure returns(string memory) {\r... */\n    tag_3:\n      tag_5\n      tag_6\n      jump\t// in\n    tag_5:\n      mload(0x40)\n      tag_7\n      swap2\n      swap1\n      tag_8\n      jump\t// in\n    tag_7:\n      mload(0x40)\n      dup1\n      swap2\n      sub\n      swap1\n      return\n        /* \"codes/T04/C2_local_variables.sol\":108:220  function myfunc2() public pure returns(int) {\r... */\n    tag_4:\n      tag_9\n      tag_10\n      jump\t// in\n    tag_9:\n      mload(0x40)\n      tag_11\n      swap2\n      swap1\n      tag_12\n      jump\t// in\n    tag_11:\n      mload(0x40)\n      dup1\n      swap2\n      sub\n      swap1\n      return\n        /* \"codes/T04/C2_local_variables.sol\":228:357  function myfunc3() public pure returns(string memory) {\r... */\n    tag_6:\n        /* \"codes/T04/C2_local_variables.sol\":267:280  string memory */\n      0x60\n        /* \"codes/T04/C2_local_variables.sol\":293:311  string memory _msg */\n      0x00\n        /* \"codes/T04/C2_local_variables.sol\":293:327  string memory _msg = 'I love you.' */\n      mload(0x40)\n      dup1\n      0x40\n      add\n      0x40\n      mstore\n      dup1\n      0x0b\n      dup2\n      mstore\n      0x20\n      add\n      0x49206c6f766520796f752e000000000000000000000000000000000000000000\n      dup2\n      mstore\n      pop\n      swap1\n      pop\n        /* \"codes/T04/C2_local_variables.sol\":345:349  _msg */\n      dup1\n        /* \"codes/T04/C2_local_variables.sol\":338:349  return _msg */\n      swap2\n      pop\n      pop\n        /* \"codes/T04/C2_local_variables.sol\":228:357  function myfunc3() public pure returns(string memory) {\r... */\n      swap1\n      jump\t// out\n        /* \"codes/T04/C2_local_variables.sol\":108:220  function myfunc2() public pure returns(int) {\r... */\n    tag_10:\n        /* \"codes/T04/C2_local_variables.sol\":147:150  int */\n      0x00\n        /* \"codes/T04/C2_local_variables.sol\":163:168  int x */\n      dup1\n        /* \"codes/T04/C2_local_variables.sol\":171:173  10 */\n      0x0a\n        /* \"codes/T04/C2_local_variables.sol\":163:173  int x = 10 */\n      swap1\n      pop\n        /* \"codes/T04/C2_local_variables.sol\":192:193  x */\n      dup1\n        /* \"codes/T04/C2_local_variables.sol\":188:189  x */\n      dup2\n        /* \"codes/T04/C2_local_variables.sol\":188:193  x * x */\n      tag_15\n      swap2\n      swap1\n      tag_16\n      jump\t// in\n    tag_15:\n        /* \"codes/T04/C2_local_variables.sol\":184:193  x = x * x */\n      swap1\n      pop\n        /* \"codes/T04/C2_local_variables.sol\":211:212  x */\n      dup1\n        /* \"codes/T04/C2_local_variables.sol\":204:212  return x */\n      swap2\n      pop\n      pop\n        /* \"codes/T04/C2_local_variables.sol\":108:220  function myfunc2() public pure returns(int) {\r... */\n      swap1\n      jump\t// out\n        /* \"#utility.yul\":7:122   */\n    tag_18:\n        /* \"#utility.yul\":92:115   */\n      tag_20\n        /* \"#utility.yul\":109:114   */\n      dup2\n        /* \"#utility.yul\":92:115   */\n      tag_21\n      jump\t// in\n    tag_20:\n        /* \"#utility.yul\":87:90   */\n      dup3\n        /* \"#utility.yul\":80:116   */\n      mstore\n        /* \"#utility.yul\":7:122   */\n      pop\n      pop\n      jump\t// out\n        /* \"#utility.yul\":128:492   */\n    tag_22:\n        /* \"#utility.yul\":216:219   */\n      0x00\n        /* \"#utility.yul\":244:283   */\n      tag_24\n        /* \"#utility.yul\":277:282   */\n      dup3\n        /* \"#utility.yul\":244:283   */\n      tag_25\n      jump\t// in\n    tag_24:\n        /* \"#utility.yul\":299:370   */\n      tag_26\n        /* \"#utility.yul\":363:369   */\n      dup2\n        /* \"#utility.yul\":358:361   */\n      dup6\n        /* \"#utility.yul\":299:370   */\n      tag_27\n      jump\t// in\n    tag_26:\n        /* \"#utility.yul\":292:370   */\n      swap4\n      pop\n        /* \"#utility.yul\":379:431   */\n      tag_28\n        /* \"#utility.yul\":424:430   */\n      dup2\n        /* \"#utility.yul\":419:422   */\n      dup6\n        /* \"#utility.yul\":412:416   */\n      0x20\n        /* \"#utility.yul\":405:410   */\n      dup7\n        /* \"#utility.yul\":401:417   */\n      add\n        /* \"#utility.yul\":379:431   */\n      tag_29\n      jump\t// in\n    tag_28:\n        /* \"#utility.yul\":456:485   */\n      tag_30\n        /* \"#utility.yul\":478:484   */\n      dup2\n        /* \"#utility.yul\":456:485   */\n      tag_31\n      jump\t// in\n    tag_30:\n        /* \"#utility.yul\":451:454   */\n      dup5\n        /* \"#utility.yul\":447:486   */\n      add\n        /* \"#utility.yul\":440:486   */\n      swap2\n      pop\n        /* \"#utility.yul\":220:492   */\n      pop\n        /* \"#utility.yul\":128:492   */\n      swap3\n      swap2\n      pop\n      pop\n      jump\t// out\n        /* \"#utility.yul\":498:716   */\n    tag_12:\n        /* \"#utility.yul\":589:593   */\n      0x00\n        /* \"#utility.yul\":627:629   */\n      0x20\n        /* \"#utility.yul\":616:625   */\n      dup3\n        /* \"#utility.yul\":612:630   */\n      add\n        /* \"#utility.yul\":604:630   */\n      swap1\n      pop\n        /* \"#utility.yul\":640:709   */\n      tag_33\n        /* \"#utility.yul\":706:707   */\n      0x00\n        /* \"#utility.yul\":695:704   */\n      dup4\n        /* \"#utility.yul\":691:708   */\n      add\n        /* \"#utility.yul\":682:688   */\n      dup5\n        /* \"#utility.yul\":640:709   */\n      tag_18\n      jump\t// in\n    tag_33:\n        /* \"#utility.yul\":498:716   */\n      swap3\n      swap2\n      pop\n      pop\n      jump\t// out\n        /* \"#utility.yul\":722:1035   */\n    tag_8:\n        /* \"#utility.yul\":835:839   */\n      0x00\n        /* \"#utility.yul\":873:875   */\n      0x20\n        /* \"#utility.yul\":862:871   */\n      dup3\n        /* \"#utility.yul\":858:876   */\n      add\n        /* \"#utility.yul\":850:876   */\n      swap1\n      pop\n        /* \"#utility.yul\":922:931   */\n      dup2\n        /* \"#utility.yul\":916:920   */\n      dup2\n        /* \"#utility.yul\":912:932   */\n      sub\n        /* \"#utility.yul\":908:909   */\n      0x00\n        /* \"#utility.yul\":897:906   */\n      dup4\n        /* \"#utility.yul\":893:910   */\n      add\n        /* \"#utility.yul\":886:933   */\n      mstore\n        /* \"#utility.yul\":950:1028   */\n      tag_35\n        /* \"#utility.yul\":1023:1027   */\n      dup2\n        /* \"#utility.yul\":1014:1020   */\n      dup5\n        /* \"#utility.yul\":950:1028   */\n      tag_22\n      jump\t// in\n    tag_35:\n        /* \"#utility.yul\":942:1028   */\n      swap1\n      pop\n        /* \"#utility.yul\":722:1035   */\n      swap3\n      swap2\n      pop\n      pop\n      jump\t// out\n        /* \"#utility.yul\":1041:1140   */\n    tag_25:\n        /* \"#utility.yul\":1093:1099   */\n      0x00\n        /* \"#utility.yul\":1127:1132   */\n      dup2\n        /* \"#utility.yul\":1121:1133   */\n      mload\n        /* \"#utility.yul\":1111:1133   */\n      swap1\n      pop\n        /* \"#utility.yul\":1041:1140   */\n      swap2\n      swap1\n      pop\n      jump\t// out\n        /* \"#utility.yul\":1146:1315   */\n    tag_27:\n        /* \"#utility.yul\":1230:1241   */\n      0x00\n        /* \"#utility.yul\":1264:1270   */\n      dup3\n        /* \"#utility.yul\":1259:1262   */\n      dup3\n        /* \"#utility.yul\":1252:1271   */\n      mstore\n        /* \"#utility.yul\":1304:1308   */\n      0x20\n        /* \"#utility.yul\":1299:1302   */\n      dup3\n        /* \"#utility.yul\":1295:1309   */\n      add\n        /* \"#utility.yul\":1280:1309   */\n      swap1\n      pop\n        /* \"#utility.yul\":1146:1315   */\n      swap3\n      swap2\n      pop\n      pop\n      jump\t// out\n        /* \"#utility.yul\":1321:2312   */\n    tag_16:\n        /* \"#utility.yul\":1360:1367   */\n      0x00\n        /* \"#utility.yul\":1383:1402   */\n      tag_39\n        /* \"#utility.yul\":1400:1401   */\n      dup3\n        /* \"#utility.yul\":1383:1402   */\n      tag_21\n      jump\t// in\n    tag_39:\n        /* \"#utility.yul\":1378:1402   */\n      swap2\n      pop\n        /* \"#utility.yul\":1416:1435   */\n      tag_40\n        /* \"#utility.yul\":1433:1434   */\n      dup4\n        /* \"#utility.yul\":1416:1435   */\n      tag_21\n      jump\t// in\n    tag_40:\n        /* \"#utility.yul\":1411:1435   */\n      swap3\n      pop\n        /* \"#utility.yul\":1617:1618   */\n      dup3\n        /* \"#utility.yul\":1549:1615   */\n      0x7fffffffffffffffffffffffffffffffffffffffffffffffffffffffffffffff\n        /* \"#utility.yul\":1545:1619   */\n      div\n        /* \"#utility.yul\":1542:1543   */\n      dup3\n        /* \"#utility.yul\":1539:1620   */\n      gt\n        /* \"#utility.yul\":1534:1535   */\n      0x00\n        /* \"#utility.yul\":1531:1532   */\n      dup5\n        /* \"#utility.yul\":1527:1536   */\n      sgt\n        /* \"#utility.yul\":1523:1524   */\n      0x00\n        /* \"#utility.yul\":1520:1521   */\n      dup5\n        /* \"#utility.yul\":1516:1525   */\n      sgt\n        /* \"#utility.yul\":1512:1537   */\n      and\n        /* \"#utility.yul\":1508:1621   */\n      and\n        /* \"#utility.yul\":1505:1644   */\n      iszero\n      tag_41\n      jumpi\n        /* \"#utility.yul\":1624:1642   */\n      tag_42\n      tag_43\n      jump\t// in\n    tag_42:\n        /* \"#utility.yul\":1505:1644   */\n    tag_41:\n        /* \"#utility.yul\":1828:1829   */\n      dup2\n        /* \"#utility.yul\":1760:1826   */\n      0x8000000000000000000000000000000000000000000000000000000000000000\n        /* \"#utility.yul\":1755:1830   */\n      sdiv\n        /* \"#utility.yul\":1752:1753   */\n      dup4\n        /* \"#utility.yul\":1748:1831   */\n      slt\n        /* \"#utility.yul\":1743:1744   */\n      0x00\n        /* \"#utility.yul\":1740:1741   */\n      dup5\n        /* \"#utility.yul\":1736:1745   */\n      slt\n        /* \"#utility.yul\":1732:1733   */\n      0x00\n        /* \"#utility.yul\":1729:1730   */\n      dup5\n        /* \"#utility.yul\":1725:1734   */\n      sgt\n        /* \"#utility.yul\":1721:1746   */\n      and\n        /* \"#utility.yul\":1717:1832   */\n      and\n        /* \"#utility.yul\":1714:1855   */\n      iszero\n      tag_44\n      jumpi\n        /* \"#utility.yul\":1835:1853   */\n      tag_45\n      tag_43\n      jump\t// in\n    tag_45:\n        /* \"#utility.yul\":1714:1855   */\n    tag_44:\n        /* \"#utility.yul\":2039:2040   */\n      dup3\n        /* \"#utility.yul\":1971:2037   */\n      0x8000000000000000000000000000000000000000000000000000000000000000\n        /* \"#utility.yul\":1966:2041   */\n      sdiv\n        /* \"#utility.yul\":1963:1964   */\n      dup3\n        /* \"#utility.yul\":1959:2042   */\n      slt\n        /* \"#utility.yul\":1954:1955   */\n      0x00\n        /* \"#utility.yul\":1951:1952   */\n      dup5\n        /* \"#utility.yul\":1947:1956   */\n      sgt\n        /* \"#utility.yul\":1943:1944   */\n      0x00\n        /* \"#utility.yul\":1940:1941   */\n      dup5\n        /* \"#utility.yul\":1936:1945   */\n      slt\n        /* \"#utility.yul\":1932:1957   */\n      and\n        /* \"#utility.yul\":1928:2043   */\n      and\n        /* \"#utility.yul\":1925:2066   */\n      iszero\n      tag_46\n      jumpi\n        /* \"#utility.yul\":2046:2064   */\n      tag_47\n      tag_43\n      jump\t// in\n    tag_47:\n        /* \"#utility.yul\":1925:2066   */\n    tag_46:\n        /* \"#utility.yul\":2249:2250   */\n      dup3\n        /* \"#utility.yul\":2181:2247   */\n      0x7fffffffffffffffffffffffffffffffffffffffffffffffffffffffffffffff\n        /* \"#utility.yul\":2176:2251   */\n      sdiv\n        /* \"#utility.yul\":2173:2174   */\n      dup3\n        /* \"#utility.yul\":2169:2252   */\n      slt\n        /* \"#utility.yul\":2164:2165   */\n      0x00\n        /* \"#utility.yul\":2161:2162   */\n      dup5\n        /* \"#utility.yul\":2157:2166   */\n      slt\n        /* \"#utility.yul\":2153:2154   */\n      0x00\n        /* \"#utility.yul\":2150:2151   */\n      dup5\n        /* \"#utility.yul\":2146:2155   */\n      slt\n        /* \"#utility.yul\":2142:2167   */\n      and\n        /* \"#utility.yul\":2138:2253   */\n      and\n        /* \"#utility.yul\":2135:2276   */\n      iszero\n      tag_48\n      jumpi\n        /* \"#utility.yul\":2256:2274   */\n      tag_49\n      tag_43\n      jump\t// in\n    tag_49:\n        /* \"#utility.yul\":2135:2276   */\n    tag_48:\n        /* \"#utility.yul\":2304:2305   */\n      dup3\n        /* \"#utility.yul\":2301:2302   */\n      dup3\n        /* \"#utility.yul\":2297:2306   */\n      mul\n        /* \"#utility.yul\":2286:2306   */\n      swap1\n      pop\n        /* \"#utility.yul\":1321:2312   */\n      swap3\n      swap2\n      pop\n      pop\n      jump\t// out\n        /* \"#utility.yul\":2318:2394   */\n    tag_21:\n        /* \"#utility.yul\":2354:2361   */\n      0x00\n        /* \"#utility.yul\":2383:2388   */\n      dup2\n        /* \"#utility.yul\":2372:2388   */\n      swap1\n      pop\n        /* \"#utility.yul\":2318:2394   */\n      swap2\n      swap1\n      pop\n      jump\t// out\n        /* \"#utility.yul\":2400:2707   */\n    tag_29:\n        /* \"#utility.yul\":2468:2469   */\n      0x00\n        /* \"#utility.yul\":2478:2591   */\n    tag_52:\n        /* \"#utility.yul\":2492:2498   */\n      dup4\n        /* \"#utility.yul\":2489:2490   */\n      dup2\n        /* \"#utility.yul\":2486:2499   */\n      lt\n        /* \"#utility.yul\":2478:2591   */\n      iszero\n      tag_54\n      jumpi\n        /* \"#utility.yul\":2577:2578   */\n      dup1\n        /* \"#utility.yul\":2572:2575   */\n      dup3\n        /* \"#utility.yul\":2568:2579   */\n      add\n        /* \"#utility.yul\":2562:2580   */\n      mload\n        /* \"#utility.yul\":2558:2559   */\n      dup2\n        /* \"#utility.yul\":2553:2556   */\n      dup5\n        /* \"#utility.yul\":2549:2560   */\n      add\n        /* \"#utility.yul\":2542:2581   */\n      mstore\n        /* \"#utility.yul\":2514:2516   */\n      0x20\n        /* \"#utility.yul\":2511:2512   */\n      dup2\n        /* \"#utility.yul\":2507:2517   */\n      add\n        /* \"#utility.yul\":2502:2517   */\n      swap1\n      pop\n        /* \"#utility.yul\":2478:2591   */\n      jump(tag_52)\n    tag_54:\n        /* \"#utility.yul\":2609:2615   */\n      dup4\n        /* \"#utility.yul\":2606:2607   */\n      dup2\n        /* \"#utility.yul\":2603:2616   */\n      gt\n        /* \"#utility.yul\":2600:2701   */\n      iszero\n      tag_55\n      jumpi\n        /* \"#utility.yul\":2689:2690   */\n      0x00\n        /* \"#utility.yul\":2680:2686   */\n      dup5\n        /* \"#utility.yul\":2675:2678   */\n      dup5\n        /* \"#utility.yul\":2671:2687   */\n      add\n        /* \"#utility.yul\":2664:2691   */\n      mstore\n        /* \"#utility.yul\":2600:2701   */\n    tag_55:\n        /* \"#utility.yul\":2449:2707   */\n      pop\n        /* \"#utility.yul\":2400:2707   */\n      pop\n      pop\n      pop\n      jump\t// out\n        /* \"#utility.yul\":2713:2893   */\n    tag_43:\n        /* \"#utility.yul\":2761:2838   */\n      0x4e487b7100000000000000000000000000000000000000000000000000000000\n        /* \"#utility.yul\":2758:2759   */\n      0x00\n        /* \"#utility.yul\":2751:2839   */\n      mstore\n        /* \"#utility.yul\":2858:2862   */\n      0x11\n        /* \"#utility.yul\":2855:2856   */\n      0x04\n        /* \"#utility.yul\":2848:2863   */\n      mstore\n        /* \"#utility.yul\":2882:2886   */\n      0x24\n        /* \"#utility.yul\":2879:2880   */\n      0x00\n        /* \"#utility.yul\":2872:2887   */\n      revert\n        /* \"#utility.yul\":2899:3001   */\n    tag_31:\n        /* \"#utility.yul\":2940:2946   */\n      0x00\n        /* \"#utility.yul\":2991:2993   */\n      0x1f\n        /* \"#utility.yul\":2987:2994   */\n      not\n        /* \"#utility.yul\":2982:2984   */\n      0x1f\n        /* \"#utility.yul\":2975:2980   */\n      dup4\n        /* \"#utility.yul\":2971:2985   */\n      add\n        /* \"#utility.yul\":2967:2995   */\n      and\n        /* \"#utility.yul\":2957:2995   */\n      swap1\n      pop\n        /* \"#utility.yul\":2899:3001   */\n      swap2\n      swap1\n      pop\n      jump\t// out\n\n    auxdata: 0xa2646970667358221220f4e9359b54b771ba77139eacbca776189b9cedd82596dd155bccaf188fad6dd564736f6c63430008070033\n}\n",
				"bytecode": {
					"linkReferences": {},
					"object": "608060405234801561001057600080fd5b50610341806100206000396000f3fe608060405234801561001057600080fd5b50600436106100365760003560e01c80630ffa37c81461003b5780633850ba5114610059575b600080fd5b610043610077565b6040516100509190610139565b60405180910390f35b6100616100ba565b60405161006e919061011e565b60405180910390f35b606060006040518060400160405280600b81526020017f49206c6f766520796f752e00000000000000000000000000000000000000000081525090508091505090565b600080600a905080816100cd9190610177565b90508091505090565b6100df8161028e565b82525050565b60006100f08261015b565b6100fa8185610166565b935061010a818560208601610298565b610113816102fa565b840191505092915050565b600060208201905061013360008301846100d6565b92915050565b6000602082019050818103600083015261015381846100e5565b905092915050565b600081519050919050565b600082825260208201905092915050565b60006101828261028e565b915061018d8361028e565b9250827f7fffffffffffffffffffffffffffffffffffffffffffffffffffffffffffffff04821160008413600084131616156101cc576101cb6102cb565b5b817f80000000000000000000000000000000000000000000000000000000000000000583126000841260008413161615610209576102086102cb565b5b827f80000000000000000000000000000000000000000000000000000000000000000582126000841360008412161615610246576102456102cb565b5b827f7fffffffffffffffffffffffffffffffffffffffffffffffffffffffffffffff0582126000841260008412161615610283576102826102cb565b5b828202905092915050565b6000819050919050565b60005b838110156102b657808201518184015260208101905061029b565b838111156102c5576000848401525b50505050565b7f4e487b7100000000000000000000000000000000000000000000000000000000600052601160045260246000fd5b6000601f19601f830116905091905056fea2646970667358221220f4e9359b54b771ba77139eacbca776189b9cedd82596dd155bccaf188fad6dd564736f6c63430008070033",
					"opcodes": "PUSH1 0x80 PUSH1 0x40 MSTORE CALLVALUE DUP1 ISZERO PUSH2 0x10 JUMPI PUSH1 0x0 DUP1 REVERT JUMPDEST POP PUSH2 0x341 DUP1 PUSH2 0x20 PUSH1 0x0 CODECOPY PUSH1 0x0 RETURN INVALID PUSH1 0x80 PUSH1 0x40 MSTORE CALLVALUE DUP1 ISZERO PUSH2 0x10 JUMPI PUSH1 0x0 DUP1 REVERT JUMPDEST POP PUSH1 0x4 CALLDATASIZE LT PUSH2 0x36 JUMPI PUSH1 0x0 CALLDATALOAD PUSH1 0xE0 SHR DUP1 PUSH4 0xFFA37C8 EQ PUSH2 0x3B JUMPI DUP1 PUSH4 0x3850BA51 EQ PUSH2 0x59 JUMPI JUMPDEST PUSH1 0x0 DUP1 REVERT JUMPDEST PUSH2 0x43 PUSH2 0x77 JUMP JUMPDEST PUSH1 0x40 MLOAD PUSH2 0x50 SWAP2 SWAP1 PUSH2 0x139 JUMP JUMPDEST PUSH1 0x40 MLOAD DUP1 SWAP2 SUB SWAP1 RETURN JUMPDEST PUSH2 0x61 PUSH2 0xBA JUMP JUMPDEST PUSH1 0x40 MLOAD PUSH2 0x6E SWAP2 SWAP1 PUSH2 0x11E JUMP JUMPDEST PUSH1 0x40 MLOAD DUP1 SWAP2 SUB SWAP1 RETURN JUMPDEST PUSH1 0x60 PUSH1 0x0 PUSH1 0x40 MLOAD DUP1 PUSH1 0x40 ADD PUSH1 0x40 MSTORE DUP1 PUSH1 0xB DUP2 MSTORE PUSH1 0x20 ADD PUSH32 0x49206C6F766520796F752E000000000000000000000000000000000000000000 DUP2 MSTORE POP SWAP1 POP DUP1 SWAP2 POP POP SWAP1 JUMP JUMPDEST PUSH1 0x0 DUP1 PUSH1 0xA SWAP1 POP DUP1 DUP2 PUSH2 0xCD SWAP2 SWAP1 PUSH2 0x177 JUMP JUMPDEST SWAP1 POP DUP1 SWAP2 POP POP SWAP1 JUMP JUMPDEST PUSH2 0xDF DUP2 PUSH2 0x28E JUMP JUMPDEST DUP3 MSTORE POP POP JUMP JUMPDEST PUSH1 0x0 PUSH2 0xF0 DUP3 PUSH2 0x15B JUMP JUMPDEST PUSH2 0xFA DUP2 DUP6 PUSH2 0x166 JUMP JUMPDEST SWAP4 POP PUSH2 0x10A DUP2 DUP6 PUSH1 0x20 DUP7 ADD PUSH2 0x298 JUMP JUMPDEST PUSH2 0x113 DUP2 PUSH2 0x2FA JUMP JUMPDEST DUP5 ADD SWAP2 POP POP SWAP3 SWAP2 POP POP JUMP JUMPDEST PUSH1 0x0 PUSH1 0x20 DUP3 ADD SWAP1 POP PUSH2 0x133 PUSH1 0x0 DUP4 ADD DUP5 PUSH2 0xD6 JUMP JUMPDEST SWAP3 SWAP2 POP POP JUMP JUMPDEST PUSH1 0x0 PUSH1 0x20 DUP3 ADD SWAP1 POP DUP2 DUP2 SUB PUSH1 0x0 DUP4 ADD MSTORE PUSH2 0x153 DUP2 DUP5 PUSH2 0xE5 JUMP JUMPDEST SWAP1 POP SWAP3 SWAP2 POP POP JUMP JUMPDEST PUSH1 0x0 DUP2 MLOAD SWAP1 POP SWAP2 SWAP1 POP JUMP JUMPDEST PUSH1 0x0 DUP3 DUP3 MSTORE PUSH1 0x20 DUP3 ADD SWAP1 POP SWAP3 SWAP2 POP POP JUMP JUMPDEST PUSH1 0x0 PUSH2 0x182 DUP3 PUSH2 0x28E JUMP JUMPDEST SWAP2 POP PUSH2 0x18D DUP4 PUSH2 0x28E JUMP JUMPDEST SWAP3 POP DUP3 PUSH32 0x7FFFFFFFFFFFFFFFFFFFFFFFFFFFFFFFFFFFFFFFFFFFFFFFFFFFFFFFFFFFFFFF DIV DUP3 GT PUSH1 0x0 DUP5 SGT PUSH1 0x0 DUP5 SGT AND AND ISZERO PUSH2 0x1CC JUMPI PUSH2 0x1CB PUSH2 0x2CB JUMP JUMPDEST JUMPDEST DUP2 PUSH32 0x8000000000000000000000000000000000000000000000000000000000000000 SDIV DUP4 SLT PUSH1 0x0 DUP5 SLT PUSH1 0x0 DUP5 SGT AND AND ISZERO PUSH2 0x209 JUMPI PUSH2 0x208 PUSH2 0x2CB JUMP JUMPDEST JUMPDEST DUP3 PUSH32 0x8000000000000000000000000000000000000000000000000000000000000000 SDIV DUP3 SLT PUSH1 0x0 DUP5 SGT PUSH1 0x0 DUP5 SLT AND AND ISZERO PUSH2 0x246 JUMPI PUSH2 0x245 PUSH2 0x2CB JUMP JUMPDEST JUMPDEST DUP3 PUSH32 0x7FFFFFFFFFFFFFFFFFFFFFFFFFFFFFFFFFFFFFFFFFFFFFFFFFFFFFFFFFFFFFFF SDIV DUP3 SLT PUSH1 0x0 DUP5 SLT PUSH1 0x0 DUP5 SLT AND AND ISZERO PUSH2 0x283 JUMPI PUSH2 0x282 PUSH2 0x2CB JUMP JUMPDEST JUMPDEST DUP3 DUP3 MUL SWAP1 POP SWAP3 SWAP2 POP POP JUMP JUMPDEST PUSH1 0x0 DUP2 SWAP1 POP SWAP2 SWAP1 POP JUMP JUMPDEST PUSH1 0x0 JUMPDEST DUP4 DUP2 LT ISZERO PUSH2 0x2B6 JUMPI DUP1 DUP3 ADD MLOAD DUP2 DUP5 ADD MSTORE PUSH1 0x20 DUP2 ADD SWAP1 POP PUSH2 0x29B JUMP JUMPDEST DUP4 DUP2 GT ISZERO PUSH2 0x2C5 JUMPI PUSH1 0x0 DUP5 DUP5 ADD MSTORE JUMPDEST POP POP POP POP JUMP JUMPDEST PUSH32 0x4E487B7100000000000000000000000000000000000000000000000000000000 PUSH1 0x0 MSTORE PUSH1 0x11 PUSH1 0x4 MSTORE PUSH1 0x24 PUSH1 0x0 REVERT JUMPDEST PUSH1 0x0 PUSH1 0x1F NOT PUSH1 0x1F DUP4 ADD AND SWAP1 POP SWAP2 SWAP1 POP JUMP INVALID LOG2 PUSH5 0x6970667358 0x22 SLT KECCAK256 DELEGATECALL 0xE9 CALLDATALOAD SWAP12 SLOAD 0xB7 PUSH18 0xBA77139EACBCA776189B9CEDD82596DD155B 0xCC 0xAF XOR DUP16 0xAD PUSH14 0xD564736F6C634300080700330000 "
				},
				"gasEstimates": {
					"creation": {
						"codeDepositCost": "166600",
						"executionCost": "214",
						"totalCost": "166814"
					},
					"external": {
						"myfunc2()": "infinite",
						"myfunc3()": "infinite"
					}
				},
				"methodIdentifiers": {
					"myfunc2()": "3850ba51",
					"myfunc3()": "0ffa37c8"
				}
			},
			"storageLayout": {
				"storage": [],
				"types": null
			},
			"userdoc": {
				"kind": "user",
				"methods": {},
				"version": 1
			}
		}
	}
}