{
	"data": {
		"bytecode": {
			"linkReferences": {},
			"object": "6080604052600a60025534801561001557600080fd5b50610106806100256000396000f3fe6080604052348015600f57600080fd5b5060043610603c5760003560e01c80634df7e3d01460415780638a054ac214605b578063c3da42b8146075575b600080fd5b6047608f565b6040516052919060ad565b60405180910390f35b60616095565b604051606c919060ad565b60405180910390f35b607b609a565b6040516086919060ad565b60405180910390f35b60015481565b606481565b60025481565b60a78160c6565b82525050565b600060208201905060c0600083018460a0565b92915050565b600081905091905056fea2646970667358221220516f7b2def9a5c0c46ae47b2c9d3a9c5a56660b6d9c33c0b8a95396d076df93f64736f6c63430008070033",
			"opcodes": "PUSH1 0x80 PUSH1 0x40 MSTORE PUSH1 0xA PUSH1 0x2 SSTORE CALLVALUE DUP1 ISZERO PUSH2 0x15 JUMPI PUSH1 0x0 DUP1 REVERT JUMPDEST POP PUSH2 0x106 DUP1 PUSH2 0x25 PUSH1 0x0 CODECOPY PUSH1 0x0 RETURN INVALID PUSH1 0x80 PUSH1 0x40 MSTORE CALLVALUE DUP1 ISZERO PUSH1 0xF JUMPI PUSH1 0x0 DUP1 REVERT JUMPDEST POP PUSH1 0x4 CALLDATASIZE LT PUSH1 0x3C JUMPI PUSH1 0x0 CALLDATALOAD PUSH1 0xE0 SHR DUP1 PUSH4 0x4DF7E3D0 EQ PUSH1 0x41 JUMPI DUP1 PUSH4 0x8A054AC2 EQ PUSH1 0x5B JUMPI DUP1 PUSH4 0xC3DA42B8 EQ PUSH1 0x75 JUMPI JUMPDEST PUSH1 0x0 DUP1 REVERT JUMPDEST PUSH1 0x47 PUSH1 0x8F JUMP JUMPDEST PUSH1 0x40 MLOAD PUSH1 0x52 SWAP2 SWAP1 PUSH1 0xAD JUMP JUMPDEST PUSH1 0x40 MLOAD DUP1 SWAP2 SUB SWAP1 RETURN JUMPDEST PUSH1 0x61 PUSH1 0x95 JUMP JUMPDEST PUSH1 0x40 MLOAD PUSH1 0x6C SWAP2 SWAP1 PUSH1 0xAD JUMP JUMPDEST PUSH1 0x40 MLOAD DUP1 SWAP2 SUB SWAP1 RETURN JUMPDEST PUSH1 0x7B PUSH1 0x9A JUMP JUMPDEST PUSH1 0x40 MLOAD PUSH1 0x86 SWAP2 SWAP1 PUSH1 0xAD JUMP JUMPDEST PUSH1 0x40 MLOAD DUP1 SWAP2 SUB SWAP1 RETURN JUMPDEST PUSH1 0x1 SLOAD DUP2 JUMP JUMPDEST PUSH1 0x64 DUP2 JUMP JUMPDEST PUSH1 0x2 SLOAD DUP2 JUMP JUMPDEST PUSH1 0xA7 DUP2 PUSH1 0xC6 JUMP JUMPDEST DUP3 MSTORE POP POP JUMP JUMPDEST PUSH1 0x0 PUSH1 0x20 DUP3 ADD SWAP1 POP PUSH1 0xC0 PUSH1 0x0 DUP4 ADD DUP5 PUSH1 0xA0 JUMP JUMPDEST SWAP3 SWAP2 POP POP JUMP JUMPDEST PUSH1 0x0 DUP2 SWAP1 POP SWAP2 SWAP1 POP JUMP INVALID LOG2 PUSH5 0x6970667358 0x22 SLT KECCAK256 MLOAD PUSH16 0x7B2DEF9A5C0C46AE47B2C9D3A9C5A566 PUSH1 0xB6 0xD9 0xC3 EXTCODECOPY SIGNEXTEND DUP11 SWAP6 CODECOPY PUSH14 0x76DF93F64736F6C634300080700 CALLER "
		},
		"gasEstimates": {
			"creation": {
				"codeDepositCost": "52400",
				"executionCost": "22211",
				"totalCost": "74611"
			},
			"external": {
				"b()": "2407",
				"c()": "2451",
				"d()": "329"
			}
		},
		"methodIdentifiers": {
			"b()": "4df7e3d0",
			"c()": "c3da42b8",
			"d()": "8a054ac2"
		}
	},
	"abi": [
		{
			"inputs": [],
			"name": "b",
			"outputs": [
				{
					"internalType": "uint256",
					"name": "",
					"type": "uint256"
				}
			],
			"stateMutability": "view",
			"type": "function"
		},
		{
			"inputs": [],
			"name": "c",
			"outputs": [
				{
					"internalType": "uint256",
					"name": "",
					"type": "uint256"
				}
			],
			"stateMutability": "view",
			"type": "function"
		},
		{
			"inputs": [],
			"name": "d",
			"outputs": [
				{
					"internalType": "uint256",
					"name": "",
					"type": "uint256"
				}
			],
			"stateMutability": "view",
			"type": "function"
		}
	]
}